:100000000C9434000C9451000C9451000C94510049
:100010000C9451000C9451000C9451000C9451001C
:100020000C9451000C9451000C9451000C9451000C
:100030000C9451000C9451000C9451000C945100FC
:100040000C9451000C9451000C9451000C945100EC
:100050000C9451000C9451000C9451000C945100DC
:100060000C9451000C94510011241FBECFEFD8E026
:10007000DEBFCDBF11E0A0E0B1E0EEEDF9E002C0DF
:1000800005900D92A034B107D9F721E0A0E4B1E0CA
:1000900001C01D92A034B207E1F70E9467010C94E1
:1000A000ED040C9400001092B90088E48093B8002D
:1000B000089594EA9093BC00ECEBF0E090819923D2
:1000C000ECF78093BB0084E88093BC00ECEBF0E09D
:1000D00080818823ECF7089594EA9093BC00ECEBC0
:1000E000F0E090819923ECF78093BB0084E8809343
:1000F000BC00ECEBF0E080818823ECF708950E94CF
:10010000590008958093BB0084E88093BC00ECEB19
:10011000F0E080818823ECF7089584EC8093BC00A4
:10012000ECEBF0E080818823ECF78091BB00089530
:1001300084E88093BC00ECEBF0E080818823ECF74E
:100140008091BB00089584E98093BC00ECEBF0E063
:10015000808184FDFDCF0895982F92959F70990F0F
:10016000292F220F220F920F8F70890F08959DEC77
:10017000899F912D1124969596959695292F220F5A
:10018000322F330F330F230F821B20E1929F800DFC
:10019000112408950E94530085E38A95F1F7000029
:1001A0000895CF92EF92FF920F931F93CF93DF9317
:1001B000F82E162FD42FC22F80ED0E946C0080E005
:1001C0000E9482008F2D0E94B7000E948200812F22
:1001D0000E94B7000E9482008D2F0E94B7000E94EB
:1001E00082008C2F0E94B7000E948200802F0E9404
:1001F000B7000E9482008E2D0E94B7000E948200EC
:100200008C2D0E94B7000E9482000E94A30081E012
:10021000DF91CF911F910F91FF90EF90CF900895B4
:100220006F927F928F929F92AF92BF92CF92DF9206
:10023000EF92FF920F931F93CF93DF934C015B01DB
:10024000EA01390180ED0E946C0080E00E9482008A
:100250000E94A30081ED0E947F000E948D000E94F9
:10026000AC00F40180830E948D000E94AC00F50177
:1002700080830E948D000E94AC0088830E948D00C4
:100280000E94AC00F30180830E948D000E94AC00AC
:10029000F80180830E948D000E94AC00F7018083EA
:1002A0000E9498000E94AC00F60180830E94A30087
:1002B000DF91CF911F910F91FF90EF90DF90CF9042
:1002C000BF90AF909F908F907F906F900895CF9345
:1002D000DF93CDB7DEB7E9970FB6F894DEBF0FBE58
:1002E000CDBF0E94E50180E091E00E94FA010E94EA
:1002F000CA0088E091E00E94FA0119821A821B82EA
:100300001C821D821E821F820F2EF4E1CF2EF02D43
:100310006894EE24E1F80CE126E04BE06BE38EE11B
:100320000E94D1008AE191E00E94FA010F2EFBE2C7
:100330008F2EF1E09F2EF02D5E0128E0A20EB11C61
:10034000CE0107966C0101977C018E010B5F1F4F58
:100350009E012C5F3F4FAE014D5F5F4FBE016E5F50
:100360007F4F05970E9410018F811F928F938E817E
:100370001F928F938D811F928F938C811F928F93E9
:100380008B811F928F938A811F928F9389811F92F5
:100390008F939F928F92BF92AF920E941C02C501D1
:1003A0000E94FA0185E091E00E94FA019FEF23ED9F
:1003B00080E3915020408040E1F700C000000FB67C
:1003C000F894DEBF0FBECDBFBBCF81E08093C500E8
:1003D00080EA8093C40088E18093C10086E0809326
:1003E000C2000895E0ECF0E0908195FFFDCF80938E
:1003F000C60008950F931F93CF93DF93EC0188817C
:1004000081110DC014C0F80181918F01882379F00A
:100410000E94F2012196CF3FD105A9F708C00E94A2
:10042000F2018E010F5F1F4FC1E0D0E0ECCFDF91F2
:10043000CF911F910F910895AEE0B0E0E2E2F2E0BB
:100440000C94C4040D891E8986E08C831A83098369
:100450008FEF9FE79E838D83AE01475E5F4F6F896D
:10046000788DCE0101960E943E02EF81F885E00F63
:10047000F11F10822E96E4E00C94E004ACE0B0E0B2
:10048000E4E4F2E00C94B6047C016B018A01FC0107
:1004900017821682838181FFBDC1CE0101964C0176
:1004A000F7019381F60193FD859193FF81916F018F
:1004B000882309F4ABC1853239F493FD859193FF0C
:1004C00081916F01853229F4B70190E00E942604E2
:1004D000E7CF512C312C20E02032A0F48B3269F090
:1004E00030F4803259F0833269F420612CC08D32AF
:1004F00039F0803339F4216026C02260246023C0A3
:10050000286021C027FD27C030ED380F3A3078F43D
:1005100026FF06C0FAE05F9E300D1124532E13C053
:100520008AE0389E300D1124332E20620CC08E32AA
:1005300021F426FD6BC1206406C08C3611F42068BE
:1005400002C0883641F4F60193FD859193FF8191B5
:100550006F018111C1CF982F9F7D9554933028F45E
:100560000C5F1F4FFFE3F9830DC0833631F08337F3
:1005700071F0833509F05BC022C0F8018081898366
:100580000E5F1F4F44244394512C540115C0380171
:10059000F2E06F0E711CF801A080B18026FF03C04D
:1005A000652D70E002C06FEF7FEFC5012C870E94C0
:1005B0001B042C0183012C852F77222E17C03801B4
:1005C000F2E06F0E711CF801A080B18026FF03C01D
:1005D000652D70E002C06FEF7FEFC5012C870E9490
:1005E00010042C012C852068222E830123FC1BC0C3
:1005F000832D90E048165906B0F4B70180E290E0F0
:100600000E9426043A94F4CFF50127FC859127FE39
:1006100081915F01B70190E00E94260431103A9465
:10062000F1E04F1A51084114510471F7E5C08436C6
:1006300011F0893639F5F80127FF07C06081718113
:10064000828193810C5F1F4F08C060817181882770
:1006500077FD8095982F0E5F1F4F2F76B22E97FF54
:1006600009C090958095709561957F4F8F4F9F4FF2
:100670002068B22E2AE030E0A4010E945804A82E7F
:10068000A81844C0853729F42F7EB22E2AE030E026
:1006900025C0F22FF97FBF2E8F36C1F018F48835B0
:1006A00079F0B4C0803719F0883721F0AFC02F2F10
:1006B0002061B22EB4FE0DC08B2D8460B82E09C00F
:1006C00024FF0AC09F2F9660B92E06C028E030E0B4
:1006D00005C020E130E002C020E132E0F801B7FEC1
:1006E00007C060817181828193810C5F1F4F06C0BA
:1006F0006081718180E090E00E5F1F4FA4010E9435
:100700005804A82EA818FB2DFF77BF2EB6FE0BC0ED
:100710002B2D2E7FA51450F4B4FE0AC0B2FC08C0E5
:100720002B2D2E7E05C07A2C2B2D03C07A2C01C0D8
:10073000752C24FF0DC0FE01EA0DF11D8081803370
:1007400011F4297E09C022FF06C07394739404C07B
:10075000822F867809F0739423FD13C020FF06C012
:100760005A2C731418F4530C5718732C731468F420
:10077000B70180E290E02C870E94260473942C85B8
:10078000F5CF731410F4371801C0312C24FF12C0B8
:10079000B70180E390E02C870E9426042C8522FF7D
:1007A00017C021FF03C088E590E002C088E790E011
:1007B000B7010CC0822F867859F021FD02C080E27B
:1007C00001C08BE227FD8DE2B70190E00E94260474
:1007D000A51438F4B70180E390E00E9426045A94EF
:1007E000F7CFAA94F401EA0DF11D8081B70190E0E2
:1007F0000E942604A110F5CF332009F451CEB70191
:1008000080E290E00E9426043A94F6CFF7018681B8
:10081000978102C08FEF9FEF2C96E2E10C94D204F7
:10082000FC010590615070400110D8F780959095BB
:100830008E0F9F1F0895FC016150704001900110C0
:10084000D8F7809590958E0F9F1F08950F931F9353
:10085000CF93DF93182F092FEB018B8181FD03C00C
:100860008FEF9FEF20C082FF10C04E815F812C81EF
:100870003D81421753077CF4E881F9819F012F5F86
:100880003F4F39832883108306C0E885F985812F7F
:100890000995892B29F72E813F812F5F3F4F3F8399
:1008A0002E83812F902FDF91CF911F910F9108956B
:1008B000FA01AA27283051F1203181F1E8946F9391
:1008C0006E7F6E5F7F4F8F4F9F4FAF4FB1E03ED037
:1008D000B4E03CD0670F781F891F9A1FA11D680FD5
:1008E000791F8A1F911DA11D6A0F711D811D911D08
:1008F000A11D20D009F468943F912AE0269F11247D
:100900003019305D3193DEF6CF010895462F4770E0
:10091000405D4193B3E00FD0C9F7F6CF462F4F703B
:10092000405D4A3318F0495D31FD4052419302D099
:10093000A9F7EACFB4E0A69597958795779567953F
:10094000BA95C9F700976105710508959B01AC013F
:100950000A2E06945795479537952795BA95C9F766
:10096000620F731F841F951FA01D08952F923F9241
:100970004F925F926F927F928F929F92AF92BF92AF
:10098000CF92DF92EF92FF920F931F93CF93DF935B
:10099000CDB7DEB7CA1BDB0B0FB6F894DEBF0FBEB8
:1009A000CDBF09942A88398848885F846E847D8405
:1009B0008C849B84AA84B984C884DF80EE80FD8007
:1009C0000C811B81AA81B981CE0FD11D0FB6F8947D
:0E09D000DEBF0FBECDBFED010895F894FFCF3E
:1009DE0055534152540D0A005254435F496E697487
:1009EE0069616C697365640D0A005345545F7469DF
:1009FE006D65616E6420646174650025643A2564DA
:100A0E003A25642025642025642F25642F25640053
:00000001FF
